:100000000C9462000C948A000C948A000C948A0070
:100010000C948A000C948A000C948A000C948A0038
:100020000C948A000C948A000C948A000C948A0028
:100030000C948A000C948A000C948A000C948A0018
:100040000C9439030C948A000C94A9030C94830338
:100050000C948A000C948A000C948A000C948A00F8
:100060000C948A000C948A000000000024002700F1
:100070002A0000000000250028002B0000000000DE
:1000800023002600290004040404040404040202DA
:100090000202020203030303030301020408102007
:1000A0004080010204081020010204081020000012
:1000B0000008000201000003040700000000000027
:1000C0000000C70611241FBECFEFD8E0DEBFCDBFB2
:1000D00011E0A0E0B1E0ECE1F3E102C005900D9287
:1000E000A037B107D9F722E0A0E7B1E001C01D9227
:1000F000A432B207E1F710E0C2E6D0E004C02197D5
:10010000FE010E943E07C136D107C9F70E94DB03FA
:100110000C948C090C940000833081F028F4813019
:1001200099F08230A1F008958730A9F08830B9F0B5
:100130008430D1F4809180008F7D03C08091800055
:100140008F7780938000089584B58F7702C084B53F
:100150008F7D84BD08958091B0008F7703C080911A
:10016000B0008F7D8093B0000895CF93DF93282F48
:1001700030E0F901E255FF4F8491F901E656FF4F57
:10018000D491F901EA57FF4FC491CC2391F081112A
:100190000E948C00EC2FF0E0EE0FFF1FE458FF4FA1
:1001A000A591B491EC91ED2381E090E021F480E001
:1001B00002C080E090E0DF91CF9108951F93CF932C
:1001C000DF93282F30E0F901E255FF4F8491F901C8
:1001D000E656FF4FD491F901EA57FF4FC491CC2363
:1001E000C9F0162F81110E948C00EC2FF0E0EE0F69
:1001F000FF1FEE58FF4FA591B4918FB7F8941111DE
:1002000005C09C91ED2FE095E92302C0EC91ED2B08
:10021000EC938FBFDF91CF911F910895CF93DF9320
:1002200090E0FC01E656FF4F2491FC01EA57FF4F96
:100230008491882361F190E0880F991FFC01E859AF
:10024000FF4FC591D491FC01EE58FF4FA591B49199
:10025000611109C09FB7F894888120958223888313
:10026000EC912E230BC0623061F49FB7F894388173
:10027000822F809583238883EC912E2B2C939FBF14
:1002800006C08FB7F894E8812E2B28838FBFDF91AB
:10029000CF9108953FB7F8948091830190918401A4
:1002A000A0918501B091860126B5A89B05C02F3F7E
:1002B00019F00196A11DB11D3FBFBA2FA92F982F8C
:1002C0008827820F911DA11DB11DBC01CD0142E007
:1002D000660F771F881F991F4A95D1F708958F924F
:1002E0009F92AF92BF92CF92DF92EF92FF926B01FB
:1002F0007C010E944A014B015C01C114D104E1045C
:10030000F104F1F00E944A01DC01CB01881999093E
:10031000AA09BB09883E9340A105B10570F321E00D
:10032000C21AD108E108F10888EE880E83E0981E11
:10033000A11CB11CC114D104E104F10419F7DDCFF3
:10034000FF90EF90DF90CF90BF90AF909F908F90F5
:100350000895CF92DF92EF92FF920F931F93CF9366
:10036000DF936C017A018B01C0E0D0E0CE15DF0590
:1003700089F0D8016D918D01D601ED91FC9101902C
:10038000F081E02DC6010995892B11F47E0102C090
:100390002196ECCFC701DF91CF911F910F91FF9074
:1003A000EF90DF90CF900895FC01918D828D98178A
:1003B00061F0828DDF01A80FB11D5D968C91928D49
:1003C0009F5F9F73928F90E008958FEF9FEF089546
:1003D000FC01918D828D981731F0828DE80FF11D0F
:1003E000858D90E008958FEF9FEF0895FC01918D2A
:1003F000228D892F90E0805C9F4F821B91098F7323
:100400009927089587E891E00E94F60121E0892B61
:1004100009F420E0822F0895FC01848DDF01A80FEC
:10042000B11DA35ABF4F2C91848D90E001968F731C
:100430009927848FA689B7892C93A089B1898C913B
:1004400080648C93938D848D981306C00288F38901
:10045000E02D80818F7D80830895EF92FF920F932E
:100460001F93CF93DF93EC0181E0888F9B8D8C8D60
:10047000981305C0E889F989808185FD24C0F62E8E
:100480000B8D10E00F5F1F4F0F731127E02E8C8D27
:10049000E8120CC00FB607FCFACFE889F989808111
:1004A00085FFF5CFCE010E940C02F1CF8B8DFE01AE
:1004B000E80FF11DE35AFF4FF0820B8FEA89FB89A9
:1004C0008081806207C0EE89FF896083E889F989AD
:1004D00080818064808381E090E0DF91CF911F91E3
:1004E0000F91FF90EF900895CF93DF93EC01888DEB
:1004F0008823C9F0EA89FB89808185FD05C0A88928
:10050000B9898C9186FD0FC00FB607FCF5CF8081AD
:1005100085FFF2CFA889B9898C9185FFEDCFCE01F7
:100520000E940C02E7CFDF91CF91089580E090E028
:10053000892B29F00E94020281110C940000089579
:10054000009769F0FC0101900020E9F73197AF01B5
:10055000481B590BBC0187E891E00C94A90180E08D
:1005600090E008958F929F92AF92BF920F931F9346
:10057000CF93DF93CDB7DEB7A1970FB6F894DEBF68
:100580000FBECDBF19A2423008F44AE08E010F5DC4
:100590001F4F842E912CA12CB12CA50194010E94F7
:1005A0000807E62FB901CA0101501109EA3014F415
:1005B000E05D01C0E95CD801EC93232B242B252BB3
:1005C00061F7C8010E94A002A1960FB6F894DEBFA1
:1005D0000FBECDBFDF91CF911F910F91BF90AF9014
:1005E0009F908F900895CF93DF930E94A002EC011B
:1005F00084E391E00E94A0028C0F9D1FDF91CF91B8
:1006000008950F931F93CF93DF93EC0160E08CE08C
:100610000E94DE00CC0FDD1FCE5FDE4F0881198106
:10062000C7E0D0E01127B8010C2E02C07595679580
:100630000A94E2F7617077278BE00E94DE0061E0A8
:1006400088E00E94DE0060E088E00E94DE002197E2
:1006500050F761E08CE00E94DE006AE070E080E02C
:1006600090E0DF91CF911F910F910C946F010E9448
:1006700087091F920F920FB60F9211242F933F9369
:100680008F939F93AF93BF9380917F01909180014F
:10069000A0918101B091820130917E0123E0230F6E
:1006A0002D3720F40196A11DB11D05C026E8230FAA
:1006B0000296A11DB11D20937E0180937F0190932E
:1006C0008001A0938101B093820180918301909178
:1006D0008401A0918501B09186010196A11DB11DF3
:1006E0008093830190938401A0938501B093860148
:1006F000BF91AF919F918F913F912F910F900FBE1E
:100700000F901F9018951F920F920FB60F92112401
:100710002F933F934F935F936F937F938F939F9309
:10072000AF93BF93EF93FF9387E891E00E940C0291
:10073000FF91EF91BF91AF919F918F917F916F91B9
:100740005F914F913F912F910F900FBE0F901F908F
:1007500018951F920F920FB60F9211242F938F931B
:100760009F93EF93FF93E0919701F091980180811F
:10077000E0919D01F0919E0182FD12C090818091D7
:10078000A0018F5F8F732091A101821751F0E0913A
:10079000A001F0E0E957FE4F958F8093A00101C0C2
:1007A0008081FF91EF919F918F912F910F900FBEBC
:1007B0000F901F901895CF93DF9300D000D0CDB746
:1007C000DEB7789484B5826084BD84B5816084BDD1
:1007D00085B5826085BD85B5816085BD80916E00DF
:1007E000816080936E001092810080918100826010
:1007F000809381008091810081608093810080914D
:1008000080008160809380008091B100846080933B
:10081000B1008091B00081608093B00080917A0037
:10082000846080937A0080917A00826080937A005D
:1008300080917A00816080937A0080917A0080684C
:1008400080937A001092C10060E084E00E940E0163
:1008500060E083E00E940E0161E084E00E94DE001F
:1008600061E083E00E94DE0061E08CE00E940E0106
:1008700061E088E00E940E0161E08BE00E940E01C1
:1008800060E086E00E940E0160E087E00E940E01B9
:1008900060E08EE00E940E0160E085E00E940E01A3
:1008A00060E082E00E940E01E0919701F0919801D2
:1008B00082E08083E0919301F09194011082E091B5
:1008C0009501F09196018FEC808310929F01E09149
:1008D0009B01F0919C0186E08083E0919901F09169
:1008E0009A01808180618083E0919901F0919A0161
:1008F000808188608083E0919901F0919A018081E4
:1009000080688083E0919901F0919A0180818F7DC8
:1009100080838AE0282E312C82E00E94B500892B4A
:1009200009F4E3C087E391E00E94F30260E08AE00B
:100930000E94DE0082E00E94B500892B09F424C2E7
:1009400010E485E00E94B500892B09F448C010939B
:100950007C0080917A00806480937A0080917A0094
:1009600086FDFCCF809178002091790090E0922B59
:10097000873623E09207ACF48F3E22E09207A4F47E
:10098000833C21E092079CF48F3521E0920794F498
:1009900031E020E08B3F91050CF430E0832F922F63
:1009A0000BC085E090E008C084E090E005C083E0E3
:1009B00090E002C082E090E0449690930101809321
:1009C00000019093710180937001B1010E94F406BF
:1009D0000E94010361E089E00E94DE00B2CF86E060
:1009E0000E94B500892BA9F166E970E080E090E0F3
:1009F0000E946F0180917001909171018C010150F2
:100A000011098A309105ACF0B1010E94F4060E94F0
:100A10000103109371010093700186E00E94B500FC
:100A2000892BD9F76AE070E080E090E00E946F01C6
:100A300010C00E94010360E089E00E94DE00109374
:100A400071010093700186E00E94B500892BD9F7EF
:100A5000E9CF87E00E94B500892B09F440C0E090FF
:100A60000001F09001018FE090E00E94010361E03D
:100A700089E00E94DE0081E0E81AF108F09271013D
:100A8000E09270012CC0809170019091710197FFEC
:100A900051CF85E00E94B500892B09F04BCF80E152
:100AA00090E00E94010387E00E94B500892B09F0C5
:100AB00041CF68EC70E080E090E00E946F018EE032
:100AC00090E00E94010387E00E94B500892B09F0A5
:100AD00031CF68EC70E080E090E00E946F0187E029
:100AE0000E94B500892B79F225CF88E491E00E941D
:100AF000F30261E08AE00E94DE0080E190E00E9463
:100B0000010384E00E94B500892B31F482E00E9449
:100B1000B500892BB1F338C10E944A010E945E08DA
:100B20009B01AC0160937A0170937B0180937C01FF
:100B300090937D0183E029833A834B835C830E94F9
:100B4000B50029813A814B815C81892B99F30E9400
:100B50004A010E945E08609376017093770180934A
:100B600078019093790129813A814B815C810E94BF
:100B700044079B01AC0160937201709373018093F1
:100B800074019093750160E876E988E99AE40E941F
:100B9000B6076B017C019B01AC010E94820988238E
:100BA00019F08DE591E01AC046015701E894B7F8B5
:100BB0002FEF3FEF4FE75FE7C501B4010E948209C5
:100BC00081110FC02FEF3FEF4FE75FE7C501B40181
:100BD0000E94B10718162CF481E691E00E94A00251
:100BE0007BC02FEF3FEF4FE75FE4C701B6010E94E4
:100BF000100918161CF485E691E0F0CF2FEF3FEFB7
:100C00004FE75FECC701B6010E94B10787FDF3CF44
:100C100020E030E0A901C701B6010E94B10787FFBB
:100C20000FC0E0918701F09188010190F081E02DE3
:100C30006DE287E891E00995C701B601905802C0BE
:100C4000C701B6012AE037ED43EA5BE30E9445079E
:100C50002B013C010E942F084B015C010E945E08A1
:100C60009B01AC01C301B2010E9444072B013C016E
:100C70004AE0C501B4010E94B20289E691E00E94F7
:100C8000A00220E030E040E251E4C301B2010E9442
:100C900015092B013C010E942F084B01A12CB12CFE
:100CA0004AE0C501B4010E94B202C501B4010E942C
:100CB0005E089B01AC01C301B2010E94440720E021
:100CC00030E040E251E40E9415090E942F0880E0C4
:100CD00090E04AE00E94B2028BE691E00E94F302AB
:100CE000C701B6010E9428089B01CB01B1010E94F7
:100CF000F4066C01E4E6F0E0C901BF010E94F406CD
:100D00007C01C90168EE73E00E94F4068E199F0908
:100D1000BF010E94F406CB010E94010368E775E061
:100D200080E090E00E946F0180E190E00E9401036A
:100D300068E572E080E090E00E946F01C7018C19C5
:100D40009D09B1010E94F406CB010E94010368E7EE
:100D500075E080E090E00E946F0180E190E00E94E9
:100D6000010368E572E080E090E00E946F01C60137
:100D70000E94010368E775E080E090E00E946F0147
:100D800080E190E00E9401030E949602C5CDE7E851
:100D9000F1E01382128288EE93E0A0E0B0E0848359
:100DA0009583A683B78388E291E09183808385EC65
:100DB00090E09587848784EC90E09787868780EC25
:100DC00090E0918B808B81EC90E0938B828B82EC16
:100DD00090E0958B848B86EC90E0978B868B118EC0
:100DE000128E138E148E089597FB072E16F400941E
:100DF00007D077FD09D00E942A0707FC05D03EF4F2
:100E0000909581959F4F0895709561957F4F0895B6
:100E1000A1E21A2EAA1BBB1BFD010DC0AA1FBB1FFE
:100E2000EE1FFF1FA217B307E407F50720F0A21B70
:100E3000B30BE40BF50B661F771F881F991F1A94DD
:100E400069F760957095809590959B01AC01BD0107
:100E5000CF010895AA1BBB1B51E107C0AA1FBB1FEE
:100E6000A617B70710F0A61BB70B881F991F5A9536
:100E7000A9F780959095BC01CD010895EE0FFF1F55
:100E80000590F491E02D09945058BB27AA270E94A1
:100E90005C070C94D6080E94C80838F00E94CF085E
:100EA00020F039F49F3F19F426F40C94C5080EF491
:100EB000E095E7FB0C94BF08E92F0E94E70858F380
:100EC000BA17620773078407950720F079F4A6F52F
:100ED0000C9409090EF4E0950B2EBA2FA02D0B01EE
:100EE000B90190010C01CA01A0011124FF27591B6F
:100EF00099F0593F50F4503E68F11A16F040A22F75
:100F0000232F342F4427585FF3CF469537952795E5
:100F1000A795F0405395C9F77EF41F16BA0B620BE4
:100F2000730B840BBAF09150A1F0FF0FBB1F661F2B
:100F3000771F881FC2F70EC0BA0F621F731F841F6E
:100F400048F4879577956795B795F7959E3F08F094
:100F5000B0CF9395880F08F09927EE0F9795879556
:100F600008950E949B0808F481E008950E94CA0732
:100F70000C94D6080E94CF0858F00E94C80840F090
:100F800029F45F3F29F00C94BF0851110C940A0911
:100F90000C94C5080E94E70868F39923B1F3552320
:100FA00091F3951B550BBB27AA276217730784077C
:100FB00038F09F5F5F4F220F331F441FAA1FA9F312
:100FC00035D00E2E3AF0E0E832D091505040E69500
:100FD000001CCAF72BD0FE2F29D0660F771F881F61
:100FE000BB1F261737074807AB07B0E809F0BB0B54
:100FF000802DBF01FF2793585F4F3AF09E3F510568
:1010000078F00C94BF080C940A095F3FE4F3983E13
:10101000D4F3869577956795B795F7959F5FC9F750
:10102000880F911D9695879597F90895E1E0660FD1
:10103000771F881FBB1F621773078407BA0720F04A
:10104000621B730B840BBA0BEE1F88F7E0950895B3
:101050000E942F086894B1110C940A0908950E9407
:10106000EF0888F09F5798F0B92F9927B751B0F043
:10107000E1F0660F771F881F991F1AF0BA95C9F71C
:1010800014C0B13091F00E940909B1E008950C94A8
:101090000909672F782F8827B85F39F0B93FCCF35B
:1010A000869577956795B395D9F73EF49095809599
:1010B000709561957F4F8F4F9F4F0895E89409C0B9
:1010C00097FB3EF490958095709561957F4F8F4F7B
:1010D0009F4F9923A9F0F92F96E9BB279395F69591
:1010E000879577956795B795F111F8CFFAF4BB0F0F
:1010F00011F460FF1BC06F5F7F4F8F4F9F4F16C073
:10110000882311F096E911C0772321F09EE8872FFC
:10111000762F05C0662371F096E8862F70E060E0B8
:101120002AF09A95660F771F881FDAF7880F969531
:10113000879597F90895990F0008550FAA0BE0E8D5
:10114000FEEF16161706E807F907C0F01216130689
:10115000E407F50798F0621B730B840B950B39F4C9
:101160000A2661F0232B242B252B21F408950A262F
:1011700009F4A140A6958FEF811D811D089597F96F
:101180009F6780E870E060E008959FEF80EC08952D
:1011900000240A9416161706180609060895002456
:1011A0000A9412161306140605060895092E0394D0
:1011B000000C11F4882352F0BB0F40F4BF2B11F444
:1011C00060FF04C06F5F7F4F8F4F9F4F089557FDA3
:1011D0009058440F551F59F05F3F71F04795880FA5
:1011E00097FB991F61F09F3F79F08795089512163C
:1011F00013061406551FF2CF4695F1DF08C01616E8
:1012000017061806991FF1CF869571056105089498
:101210000895E894BB2766277727CB0197F90895AF
:101220000E949B0808F48FEF08950E9428090C94EF
:10123000D6080E94C80838F00E94CF0820F09523F5
:1012400011F00C94BF080C94C50811240C940A09E1
:101250000E94E70870F3959FC1F3950F50E0551F6A
:10126000629FF001729FBB27F00DB11D639FAA27FB
:10127000F00DB11DAA1F649F6627B00DA11D661F4A
:10128000829F2227B00DA11D621F739FB00DA11D6B
:10129000621F839FA00D611D221F749F3327A00D25
:1012A000611D231F849F600D211D822F762F6A2FC1
:1012B00011249F5750409AF0F1F088234AF0EE0F26
:1012C000FF1FBB1F661F771F881F91505040A9F753
:1012D0009E3F510580F00C94BF080C940A095F3FB3
:1012E000E4F3983ED4F3869577956795B795F7958F
:1012F000E7959F5FC1F7FE2B880F911D9695879507
:1013000097F908950E949B08880B990B089581E036
:0C13100090E0F8940C948C09F894FFCF46
:10131C001900FC006000DA00F2006600B600BE00A6
:10132C00E000FE00F600EE003E009C007A009E00FD
:10133C008E000000000000002D02A901F601D4016E
:10134C00E80174020D0A007374617274696E67208F
:10135C00646973706C6179007374617274696E671F
:10136C00206368726F6E6F6772617068006E616E79
:10137C0000696E66006F7666002E00206670730042
:00000001FF
